{
  "_format": "hh-sol-artifact-1",
  "contractName": "PredictionMarket",
  "sourceName": "contracts/PredictionMarket.sol",
  "abi": [
    {
      "inputs": [
        {
          "internalType": "address",
          "name": "_token",
          "type": "address"
        },
        {
          "internalType": "address",
          "name": "initialOwner",
          "type": "address"
        }
      ],
      "stateMutability": "nonpayable",
      "type": "constructor"
    },
    {
      "inputs": [],
      "name": "InsufficientAllowance",
      "type": "error"
    },
    {
      "inputs": [],
      "name": "InvalidMarketId",
      "type": "error"
    },
    {
      "inputs": [],
      "name": "MarketAlreadyResolved",
      "type": "error"
    },
    {
      "inputs": [],
      "name": "MarketEnded",
      "type": "error"
    },
    {
      "inputs": [],
      "name": "MarketNotEnded",
      "type": "error"
    },
    {
      "inputs": [
        {
          "internalType": "address",
          "name": "owner",
          "type": "address"
        }
      ],
      "name": "OwnableInvalidOwner",
      "type": "error"
    },
    {
      "inputs": [
        {
          "internalType": "address",
          "name": "account",
          "type": "address"
        }
      ],
      "name": "OwnableUnauthorizedAccount",
      "type": "error"
    },
    {
      "anonymous": false,
      "inputs": [
        {
          "indexed": false,
          "internalType": "string",
          "name": "message",
          "type": "string"
        },
        {
          "indexed": false,
          "internalType": "uint256",
          "name": "value",
          "type": "uint256"
        }
      ],
      "name": "DebugLog",
      "type": "event"
    },
    {
      "anonymous": false,
      "inputs": [
        {
          "indexed": true,
          "internalType": "uint256",
          "name": "marketId",
          "type": "uint256"
        },
        {
          "indexed": false,
          "internalType": "address",
          "name": "creator",
          "type": "address"
        },
        {
          "indexed": false,
          "internalType": "string",
          "name": "question",
          "type": "string"
        },
        {
          "indexed": false,
          "internalType": "uint256",
          "name": "endTime",
          "type": "uint256"
        }
      ],
      "name": "MarketCreated",
      "type": "event"
    },
    {
      "anonymous": false,
      "inputs": [
        {
          "indexed": true,
          "internalType": "uint256",
          "name": "marketId",
          "type": "uint256"
        },
        {
          "indexed": false,
          "internalType": "bool",
          "name": "outcome",
          "type": "bool"
        },
        {
          "indexed": false,
          "internalType": "address",
          "name": "resolver",
          "type": "address"
        }
      ],
      "name": "MarketResolved",
      "type": "event"
    },
    {
      "anonymous": false,
      "inputs": [
        {
          "indexed": true,
          "internalType": "address",
          "name": "previousOwner",
          "type": "address"
        },
        {
          "indexed": true,
          "internalType": "address",
          "name": "newOwner",
          "type": "address"
        }
      ],
      "name": "OwnershipTransferred",
      "type": "event"
    },
    {
      "anonymous": false,
      "inputs": [
        {
          "indexed": true,
          "internalType": "uint256",
          "name": "marketId",
          "type": "uint256"
        },
        {
          "indexed": false,
          "internalType": "address",
          "name": "recipient",
          "type": "address"
        },
        {
          "indexed": false,
          "internalType": "uint256",
          "name": "amount",
          "type": "uint256"
        }
      ],
      "name": "PayoutDistributed",
      "type": "event"
    },
    {
      "anonymous": false,
      "inputs": [
        {
          "indexed": true,
          "internalType": "uint256",
          "name": "marketId",
          "type": "uint256"
        },
        {
          "indexed": false,
          "internalType": "address",
          "name": "buyer",
          "type": "address"
        },
        {
          "indexed": false,
          "internalType": "bool",
          "name": "isYes",
          "type": "bool"
        },
        {
          "indexed": false,
          "internalType": "uint256",
          "name": "amount",
          "type": "uint256"
        }
      ],
      "name": "SharesPurchased",
      "type": "event"
    },
    {
      "inputs": [
        {
          "internalType": "uint256",
          "name": "_marketId",
          "type": "uint256"
        },
        {
          "internalType": "bool",
          "name": "_isYes",
          "type": "bool"
        },
        {
          "internalType": "uint256",
          "name": "_amount",
          "type": "uint256"
        }
      ],
      "name": "buyShares",
      "outputs": [],
      "stateMutability": "nonpayable",
      "type": "function"
    },
    {
      "inputs": [
        {
          "internalType": "string",
          "name": "_question",
          "type": "string"
        },
        {
          "internalType": "uint256",
          "name": "_endTime",
          "type": "uint256"
        }
      ],
      "name": "createMarket",
      "outputs": [],
      "stateMutability": "nonpayable",
      "type": "function"
    },
    {
      "inputs": [
        {
          "internalType": "uint256",
          "name": "_marketId",
          "type": "uint256"
        }
      ],
      "name": "getMarketDetails",
      "outputs": [
        {
          "internalType": "address",
          "name": "creator",
          "type": "address"
        },
        {
          "internalType": "string",
          "name": "question",
          "type": "string"
        },
        {
          "internalType": "uint256",
          "name": "endTime",
          "type": "uint256"
        },
        {
          "internalType": "bool",
          "name": "resolved",
          "type": "bool"
        },
        {
          "internalType": "uint256",
          "name": "yesShares",
          "type": "uint256"
        },
        {
          "internalType": "uint256",
          "name": "noShares",
          "type": "uint256"
        }
      ],
      "stateMutability": "view",
      "type": "function"
    },
    {
      "inputs": [
        {
          "internalType": "uint256",
          "name": "_marketId",
          "type": "uint256"
        },
        {
          "internalType": "address",
          "name": "_user",
          "type": "address"
        }
      ],
      "name": "getUserShares",
      "outputs": [
        {
          "internalType": "uint256",
          "name": "yesShares",
          "type": "uint256"
        },
        {
          "internalType": "uint256",
          "name": "noShares",
          "type": "uint256"
        }
      ],
      "stateMutability": "view",
      "type": "function"
    },
    {
      "inputs": [],
      "name": "marketCount",
      "outputs": [
        {
          "internalType": "uint256",
          "name": "",
          "type": "uint256"
        }
      ],
      "stateMutability": "view",
      "type": "function"
    },
    {
      "inputs": [
        {
          "internalType": "uint256",
          "name": "",
          "type": "uint256"
        }
      ],
      "name": "markets",
      "outputs": [
        {
          "internalType": "address",
          "name": "creator",
          "type": "address"
        },
        {
          "internalType": "string",
          "name": "question",
          "type": "string"
        },
        {
          "internalType": "uint256",
          "name": "endTime",
          "type": "uint256"
        },
        {
          "internalType": "bool",
          "name": "resolved",
          "type": "bool"
        },
        {
          "internalType": "uint256",
          "name": "yesShares",
          "type": "uint256"
        },
        {
          "internalType": "uint256",
          "name": "noShares",
          "type": "uint256"
        }
      ],
      "stateMutability": "view",
      "type": "function"
    },
    {
      "inputs": [],
      "name": "owner",
      "outputs": [
        {
          "internalType": "address",
          "name": "",
          "type": "address"
        }
      ],
      "stateMutability": "view",
      "type": "function"
    },
    {
      "inputs": [],
      "name": "renounceOwnership",
      "outputs": [],
      "stateMutability": "nonpayable",
      "type": "function"
    },
    {
      "inputs": [
        {
          "internalType": "uint256",
          "name": "_marketId",
          "type": "uint256"
        },
        {
          "internalType": "bool",
          "name": "_outcome",
          "type": "bool"
        }
      ],
      "name": "resolveMarket",
      "outputs": [],
      "stateMutability": "nonpayable",
      "type": "function"
    },
    {
      "inputs": [],
      "name": "token",
      "outputs": [
        {
          "internalType": "contract IERC20",
          "name": "",
          "type": "address"
        }
      ],
      "stateMutability": "view",
      "type": "function"
    },
    {
      "inputs": [
        {
          "internalType": "address",
          "name": "newOwner",
          "type": "address"
        }
      ],
      "name": "transferOwnership",
      "outputs": [],
      "stateMutability": "nonpayable",
      "type": "function"
    }
  ],
  "bytecode": "0x60806040523480156200001157600080fd5b50604051620028d4380380620028d4833981810160405281019062000037919062000236565b80600073ffffffffffffffffffffffffffffffffffffffff168173ffffffffffffffffffffffffffffffffffffffff1603620000ad5760006040517f1e4fbdf7000000000000000000000000000000000000000000000000000000008152600401620000a491906200028e565b60405180910390fd5b620000be816200010860201b60201c565b5081600160006101000a81548173ffffffffffffffffffffffffffffffffffffffff021916908373ffffffffffffffffffffffffffffffffffffffff1602179055505050620002ab565b60008060009054906101000a900473ffffffffffffffffffffffffffffffffffffffff169050816000806101000a81548173ffffffffffffffffffffffffffffffffffffffff021916908373ffffffffffffffffffffffffffffffffffffffff1602179055508173ffffffffffffffffffffffffffffffffffffffff168173ffffffffffffffffffffffffffffffffffffffff167f8be0079c531659141344cd1fd0a4f28419497f9722a3daafe3b4186f6b6457e060405160405180910390a35050565b600080fd5b600073ffffffffffffffffffffffffffffffffffffffff82169050919050565b6000620001fe82620001d1565b9050919050565b6200021081620001f1565b81146200021c57600080fd5b50565b600081519050620002308162000205565b92915050565b6000806040838503121562000250576200024f620001cc565b5b600062000260858286016200021f565b925050602062000273858286016200021f565b9150509250929050565b6200028881620001f1565b82525050565b6000602082019050620002a560008301846200027d565b92915050565b61261980620002bb6000396000f3fe608060405234801561001057600080fd5b50600436106100a95760003560e01c80638da5cb5b116100715780638da5cb5b1461013d578063b06c1ba31461015b578063b1283e7714610190578063ec979082146101c5578063f2fde38b146101e3578063fc0c546a146101ff576100a9565b806339b46372146100ae57806357bde446146100ca578063715018a6146100e6578063835dc40b146100f0578063883c84c114610121575b600080fd5b6100c860048036038101906100c391906114e2565b61021d565b005b6100e460048036038101906100df9190611535565b610a69565b005b6100ee610e62565b005b61010a600480360381019061010591906115d3565b610e76565b604051610118929190611622565b60405180910390f35b61013b60048036038101906101369190611791565b610f20565b005b610145611034565b60405161015291906117fc565b60405180910390f35b61017560048036038101906101709190611817565b61105d565b604051610187969594939291906118d2565b60405180910390f35b6101aa60048036038101906101a59190611817565b61116a565b6040516101bc969594939291906118d2565b60405180910390f35b6101cd61125b565b6040516101da919061193a565b60405180910390f35b6101fd60048036038101906101f89190611955565b611261565b005b6102076112e7565b60405161021491906119e1565b60405180910390f35b7ff6ff2ad7fc16bda2a7d32462729431bce3ebe9b75cc7c9b35a0adfbf7e7bb9e68360405161024c9190611a48565b60405180910390a16000600360008581526020019081526020016000209050600073ffffffffffffffffffffffffffffffffffffffff168160000160009054906101000a900473ffffffffffffffffffffffffffffffffffffffff1673ffffffffffffffffffffffffffffffffffffffff16036102f5576040517f06417a6000000000000000000000000000000000000000000000000000000000815260040160405180910390fd5b7ff6ff2ad7fc16bda2a7d32462729431bce3ebe9b75cc7c9b35a0adfbf7e7bb9e6846040516103249190611ac2565b60405180910390a18060030160009054906101000a900460ff1615610375576040517faa43cb2d00000000000000000000000000000000000000000000000000000000815260040160405180910390fd5b806002015442106103b2576040517f98add4c400000000000000000000000000000000000000000000000000000000815260040160405180910390fd5b7ff6ff2ad7fc16bda2a7d32462729431bce3ebe9b75cc7c9b35a0adfbf7e7bb9e6826040516103e19190611b3c565b60405180910390a181600160009054906101000a900473ffffffffffffffffffffffffffffffffffffffff1673ffffffffffffffffffffffffffffffffffffffff166370a08231336040518263ffffffff1660e01b815260040161044591906117fc565b602060405180830381865afa158015610462573d6000803e3d6000fd5b505050506040513d601f19601f820116820180604052508101906104869190611b7f565b10156104c7576040517f08c379a00000000000000000000000000000000000000000000000000000000081526004016104be90611bf8565b60405180910390fd5b7ff6ff2ad7fc16bda2a7d32462729431bce3ebe9b75cc7c9b35a0adfbf7e7bb9e6826040516104f69190611c64565b60405180910390a17ff6ff2ad7fc16bda2a7d32462729431bce3ebe9b75cc7c9b35a0adfbf7e7bb9e68260405161052d9190611cde565b60405180910390a181600160009054906101000a900473ffffffffffffffffffffffffffffffffffffffff1673ffffffffffffffffffffffffffffffffffffffff1663dd62ed3e33306040518363ffffffff1660e01b8152600401610593929190611d0c565b602060405180830381865afa1580156105b0573d6000803e3d6000fd5b505050506040513d601f19601f820116820180604052508101906105d49190611b7f565b1015610615576040517f08c379a000000000000000000000000000000000000000000000000000000000815260040161060c90611d81565b60405180910390fd5b7ff6ff2ad7fc16bda2a7d32462729431bce3ebe9b75cc7c9b35a0adfbf7e7bb9e6826040516106449190611ded565b60405180910390a17ff6ff2ad7fc16bda2a7d32462729431bce3ebe9b75cc7c9b35a0adfbf7e7bb9e68260405161067b9190611e67565b60405180910390a1600160009054906101000a900473ffffffffffffffffffffffffffffffffffffffff1673ffffffffffffffffffffffffffffffffffffffff166323b872dd3330856040518463ffffffff1660e01b81526004016106e293929190611e95565b6020604051808303816000875af1158015610701573d6000803e3d6000fd5b505050506040513d601f19601f820116820180604052508101906107259190611ee1565b610764576040517f08c379a000000000000000000000000000000000000000000000000000000000815260040161075b90611f5a565b60405180910390fd5b7ff6ff2ad7fc16bda2a7d32462729431bce3ebe9b75cc7c9b35a0adfbf7e7bb9e6826040516107939190611fc6565b60405180910390a1821561081957818160040160008282546107b59190612023565b92505081905550818160060160003373ffffffffffffffffffffffffffffffffffffffff1673ffffffffffffffffffffffffffffffffffffffff168152602001908152602001600020600082825461080d9190612023565b9250508190555061088d565b8181600501600082825461082d9190612023565b92505081905550818160070160003373ffffffffffffffffffffffffffffffffffffffff1673ffffffffffffffffffffffffffffffffffffffff16815260200190815260200160002060008282546108859190612023565b925050819055505b6000828260060160003373ffffffffffffffffffffffffffffffffffffffff1673ffffffffffffffffffffffffffffffffffffffff16815260200190815260200160002054148015610920575060008260070160003373ffffffffffffffffffffffffffffffffffffffff1673ffffffffffffffffffffffffffffffffffffffff16815260200190815260200160002054145b806109b85750828260070160003373ffffffffffffffffffffffffffffffffffffffff1673ffffffffffffffffffffffffffffffffffffffff168152602001908152602001600020541480156109b7575060008260060160003373ffffffffffffffffffffffffffffffffffffffff1673ffffffffffffffffffffffffffffffffffffffff16815260200190815260200160002054145b5b90508015610a265781600801339080600181540180825580915050600190039060005260206000200160009091909190916101000a81548173ffffffffffffffffffffffffffffffffffffffff021916908373ffffffffffffffffffffffffffffffffffffffff1602179055505b847fb3a1ddef05fa52ff8a462662e00f5fd54a3b35e85417cafcaa671fb30434bd11338686604051610a5a93929190612057565b60405180910390a25050505050565b6000600360008481526020019081526020016000209050600073ffffffffffffffffffffffffffffffffffffffff168160000160009054906101000a900473ffffffffffffffffffffffffffffffffffffffff1673ffffffffffffffffffffffffffffffffffffffff1603610b0a576040517f06417a6000000000000000000000000000000000000000000000000000000000815260040160405180910390fd5b8060030160009054906101000a900460ff1615610b53576040517faa43cb2d00000000000000000000000000000000000000000000000000000000815260040160405180910390fd5b8060020154421015610b9a576040517f08c379a0000000000000000000000000000000000000000000000000000000008152600401610b91906120da565b60405180910390fd5b60018160030160006101000a81548160ff021916908315150217905550600081600501548260040154610bcd9190612023565b9050600083610be0578260050154610be6565b82600401545b905060005b8360080180549050811015610e20576000846008018281548110610c1257610c116120fa565b5b9060005260206000200160009054906101000a900473ffffffffffffffffffffffffffffffffffffffff169050600086610c8d578560070160008373ffffffffffffffffffffffffffffffffffffffff1673ffffffffffffffffffffffffffffffffffffffff16815260200190815260200160002054610cd0565b8560060160008373ffffffffffffffffffffffffffffffffffffffff1673ffffffffffffffffffffffffffffffffffffffff168152602001908152602001600020545b90506000811115610e11576000848683610cea9190612129565b610cf4919061219a565b9050600160009054906101000a900473ffffffffffffffffffffffffffffffffffffffff1673ffffffffffffffffffffffffffffffffffffffff1663a9059cbb84836040518363ffffffff1660e01b8152600401610d539291906121cb565b6020604051808303816000875af1158015610d72573d6000803e3d6000fd5b505050506040513d601f19601f82011682018060405250810190610d969190611ee1565b610dd5576040517f08c379a0000000000000000000000000000000000000000000000000000000008152600401610dcc90611f5a565b60405180910390fd5b887f829a492b098e906d67afcc4c67889ac97486df205cd59c8749f8f61d782203828483604051610e079291906121cb565b60405180910390a2505b50508080600101915050610beb565b50847fc1f7924abfc39d1665019231fb651970dcad9771ce49e084cbb03f4a72a69e3a8533604051610e539291906121f4565b60405180910390a25050505050565b610e6a61130d565b610e746000611394565b565b60008060006003600086815260200190815260200160002090508060060160008573ffffffffffffffffffffffffffffffffffffffff1673ffffffffffffffffffffffffffffffffffffffff168152602001908152602001600020548160070160008673ffffffffffffffffffffffffffffffffffffffff1673ffffffffffffffffffffffffffffffffffffffff1681526020019081526020016000205492509250509250929050565b428111610f62576040517f08c379a0000000000000000000000000000000000000000000000000000000008152600401610f5990612269565b60405180910390fd5b60026000815480929190610f7590612289565b919050555060006003600060025481526020019081526020016000209050338160000160006101000a81548173ffffffffffffffffffffffffffffffffffffffff021916908373ffffffffffffffffffffffffffffffffffffffff16021790555082816001019081610fe791906124d3565b508181600201819055506002547f03e783e31593f59fda73a59d05e2525d610a533995cce4d4750186c3b6bf80bb338585604051611027939291906125a5565b60405180910390a2505050565b60008060009054906101000a900473ffffffffffffffffffffffffffffffffffffffff16905090565b6000606060008060008060006003600089815260200190815260200160002090508060000160009054906101000a900473ffffffffffffffffffffffffffffffffffffffff168160010182600201548360030160009054906101000a900460ff16846004015485600501548480546110d490612300565b80601f016020809104026020016040519081016040528092919081815260200182805461110090612300565b801561114d5780601f106111225761010080835404028352916020019161114d565b820191906000526020600020905b81548152906001019060200180831161113057829003601f168201915b505050505094509650965096509650965096505091939550919395565b60036020528060005260406000206000915090508060000160009054906101000a900473ffffffffffffffffffffffffffffffffffffffff16908060010180546111b390612300565b80601f01602080910402602001604051908101604052809291908181526020018280546111df90612300565b801561122c5780601f106112015761010080835404028352916020019161122c565b820191906000526020600020905b81548152906001019060200180831161120f57829003601f168201915b5050505050908060020154908060030160009054906101000a900460ff16908060040154908060050154905086565b60025481565b61126961130d565b600073ffffffffffffffffffffffffffffffffffffffff168173ffffffffffffffffffffffffffffffffffffffff16036112db5760006040517f1e4fbdf70000000000000000000000000000000000000000000000000000000081526004016112d291906117fc565b60405180910390fd5b6112e481611394565b50565b600160009054906101000a900473ffffffffffffffffffffffffffffffffffffffff1681565b611315611458565b73ffffffffffffffffffffffffffffffffffffffff16611333611034565b73ffffffffffffffffffffffffffffffffffffffff161461139257611356611458565b6040517f118cdaa700000000000000000000000000000000000000000000000000000000815260040161138991906117fc565b60405180910390fd5b565b60008060009054906101000a900473ffffffffffffffffffffffffffffffffffffffff169050816000806101000a81548173ffffffffffffffffffffffffffffffffffffffff021916908373ffffffffffffffffffffffffffffffffffffffff1602179055508173ffffffffffffffffffffffffffffffffffffffff168173ffffffffffffffffffffffffffffffffffffffff167f8be0079c531659141344cd1fd0a4f28419497f9722a3daafe3b4186f6b6457e060405160405180910390a35050565b600033905090565b6000604051905090565b600080fd5b600080fd5b6000819050919050565b61148781611474565b811461149257600080fd5b50565b6000813590506114a48161147e565b92915050565b60008115159050919050565b6114bf816114aa565b81146114ca57600080fd5b50565b6000813590506114dc816114b6565b92915050565b6000806000606084860312156114fb576114fa61146a565b5b600061150986828701611495565b935050602061151a868287016114cd565b925050604061152b86828701611495565b9150509250925092565b6000806040838503121561154c5761154b61146a565b5b600061155a85828601611495565b925050602061156b858286016114cd565b9150509250929050565b600073ffffffffffffffffffffffffffffffffffffffff82169050919050565b60006115a082611575565b9050919050565b6115b081611595565b81146115bb57600080fd5b50565b6000813590506115cd816115a7565b92915050565b600080604083850312156115ea576115e961146a565b5b60006115f885828601611495565b9250506020611609858286016115be565b9150509250929050565b61161c81611474565b82525050565b60006040820190506116376000830185611613565b6116446020830184611613565b9392505050565b600080fd5b600080fd5b6000601f19601f8301169050919050565b7f4e487b7100000000000000000000000000000000000000000000000000000000600052604160045260246000fd5b61169e82611655565b810181811067ffffffffffffffff821117156116bd576116bc611666565b5b80604052505050565b60006116d0611460565b90506116dc8282611695565b919050565b600067ffffffffffffffff8211156116fc576116fb611666565b5b61170582611655565b9050602081019050919050565b82818337600083830152505050565b600061173461172f846116e1565b6116c6565b9050828152602081018484840111156117505761174f611650565b5b61175b848285611712565b509392505050565b600082601f8301126117785761177761164b565b5b8135611788848260208601611721565b91505092915050565b600080604083850312156117a8576117a761146a565b5b600083013567ffffffffffffffff8111156117c6576117c561146f565b5b6117d285828601611763565b92505060206117e385828601611495565b9150509250929050565b6117f681611595565b82525050565b600060208201905061181160008301846117ed565b92915050565b60006020828403121561182d5761182c61146a565b5b600061183b84828501611495565b91505092915050565b600081519050919050565b600082825260208201905092915050565b60005b8381101561187e578082015181840152602081019050611863565b60008484015250505050565b600061189582611844565b61189f818561184f565b93506118af818560208601611860565b6118b881611655565b840191505092915050565b6118cc816114aa565b82525050565b600060c0820190506118e760008301896117ed565b81810360208301526118f9818861188a565b90506119086040830187611613565b61191560608301866118c3565b6119226080830185611613565b61192f60a0830184611613565b979650505050505050565b600060208201905061194f6000830184611613565b92915050565b60006020828403121561196b5761196a61146a565b5b6000611979848285016115be565b91505092915050565b6000819050919050565b60006119a76119a261199d84611575565b611982565b611575565b9050919050565b60006119b98261198c565b9050919050565b60006119cb826119ae565b9050919050565b6119db816119c0565b82525050565b60006020820190506119f660008301846119d2565b92915050565b7f427579207368617265732063616c6c6564000000000000000000000000000000600082015250565b6000611a3260118361184f565b9150611a3d826119fc565b602082019050919050565b60006040820190508181036000830152611a6181611a25565b9050611a706020830184611613565b92915050565b7f4d61726b657420666f756e640000000000000000000000000000000000000000600082015250565b6000611aac600c8361184f565b9150611ab782611a76565b602082019050919050565b60006040820190508181036000830152611adb81611a9f565b9050611aea6020830184611613565b92915050565b7f436865636b696e672062616c616e636500000000000000000000000000000000600082015250565b6000611b2660108361184f565b9150611b3182611af0565b602082019050919050565b60006040820190508181036000830152611b5581611b19565b9050611b646020830184611613565b92915050565b600081519050611b798161147e565b92915050565b600060208284031215611b9557611b9461146a565b5b6000611ba384828501611b6a565b91505092915050565b7f496e73756666696369656e7420746f6b656e2062616c616e6365000000000000600082015250565b6000611be2601a8361184f565b9150611bed82611bac565b602082019050919050565b60006020820190508181036000830152611c1181611bd5565b9050919050565b7f42616c616e6365206f6b00000000000000000000000000000000000000000000600082015250565b6000611c4e600a8361184f565b9150611c5982611c18565b602082019050919050565b60006040820190508181036000830152611c7d81611c41565b9050611c8c6020830184611613565b92915050565b7f436865636b696e6720616c6c6f77616e63650000000000000000000000000000600082015250565b6000611cc860128361184f565b9150611cd382611c92565b602082019050919050565b60006040820190508181036000830152611cf781611cbb565b9050611d066020830184611613565b92915050565b6000604082019050611d2160008301856117ed565b611d2e60208301846117ed565b9392505050565b7f496e73756666696369656e7420616c6c6f77616e636500000000000000000000600082015250565b6000611d6b60168361184f565b9150611d7682611d35565b602082019050919050565b60006020820190508181036000830152611d9a81611d5e565b9050919050565b7f416c6c6f77616e6365206f6b0000000000000000000000000000000000000000600082015250565b6000611dd7600c8361184f565b9150611de282611da1565b602082019050919050565b60006040820190508181036000830152611e0681611dca565b9050611e156020830184611613565b92915050565b7f5472616e7366657272696e6720746f6b656e7300000000000000000000000000600082015250565b6000611e5160138361184f565b9150611e5c82611e1b565b602082019050919050565b60006040820190508181036000830152611e8081611e44565b9050611e8f6020830184611613565b92915050565b6000606082019050611eaa60008301866117ed565b611eb760208301856117ed565b611ec46040830184611613565b949350505050565b600081519050611edb816114b6565b92915050565b600060208284031215611ef757611ef661146a565b5b6000611f0584828501611ecc565b91505092915050565b7f546f6b656e207472616e73666572206661696c65640000000000000000000000600082015250565b6000611f4460158361184f565b9150611f4f82611f0e565b602082019050919050565b60006020820190508181036000830152611f7381611f37565b9050919050565b7f5472616e73666572207375636365737366756c00000000000000000000000000600082015250565b6000611fb060138361184f565b9150611fbb82611f7a565b602082019050919050565b60006040820190508181036000830152611fdf81611fa3565b9050611fee6020830184611613565b92915050565b7f4e487b7100000000000000000000000000000000000000000000000000000000600052601160045260246000fd5b600061202e82611474565b915061203983611474565b925082820190508082111561205157612050611ff4565b5b92915050565b600060608201905061206c60008301866117ed565b61207960208301856118c3565b6120866040830184611613565b949350505050565b7f4d61726b657420686173206e6f7420656e646564207965740000000000000000600082015250565b60006120c460188361184f565b91506120cf8261208e565b602082019050919050565b600060208201905081810360008301526120f3816120b7565b9050919050565b7f4e487b7100000000000000000000000000000000000000000000000000000000600052603260045260246000fd5b600061213482611474565b915061213f83611474565b925082820261214d81611474565b9150828204841483151761216457612163611ff4565b5b5092915050565b7f4e487b7100000000000000000000000000000000000000000000000000000000600052601260045260246000fd5b60006121a582611474565b91506121b083611474565b9250826121c0576121bf61216b565b5b828204905092915050565b60006040820190506121e060008301856117ed565b6121ed6020830184611613565b9392505050565b600060408201905061220960008301856118c3565b61221660208301846117ed565b9392505050565b7f456e642074696d65206d75737420626520696e20746865206675747572650000600082015250565b6000612253601e8361184f565b915061225e8261221d565b602082019050919050565b6000602082019050818103600083015261228281612246565b9050919050565b600061229482611474565b91507fffffffffffffffffffffffffffffffffffffffffffffffffffffffffffffffff82036122c6576122c5611ff4565b5b600182019050919050565b7f4e487b7100000000000000000000000000000000000000000000000000000000600052602260045260246000fd5b6000600282049050600182168061231857607f821691505b60208210810361232b5761232a6122d1565b5b50919050565b60008190508160005260206000209050919050565b60006020601f8301049050919050565b600082821b905092915050565b6000600883026123937fffffffffffffffffffffffffffffffffffffffffffffffffffffffffffffffff82612356565b61239d8683612356565b95508019841693508086168417925050509392505050565b60006123d06123cb6123c684611474565b611982565b611474565b9050919050565b6000819050919050565b6123ea836123b5565b6123fe6123f6826123d7565b848454612363565b825550505050565b600090565b612413612406565b61241e8184846123e1565b505050565b5b818110156124425761243760008261240b565b600181019050612424565b5050565b601f8211156124875761245881612331565b61246184612346565b81016020851015612470578190505b61248461247c85612346565b830182612423565b50505b505050565b600082821c905092915050565b60006124aa6000198460080261248c565b1980831691505092915050565b60006124c38383612499565b9150826002028217905092915050565b6124dc82611844565b67ffffffffffffffff8111156124f5576124f4611666565b5b6124ff8254612300565b61250a828285612446565b600060209050601f83116001811461253d576000841561252b578287015190505b61253585826124b7565b86555061259d565b601f19841661254b86612331565b60005b828110156125735784890151825560018201915060208501945060208101905061254e565b86831015612590578489015161258c601f891682612499565b8355505b6001600288020188555050505b505050505050565b60006060820190506125ba60008301866117ed565b81810360208301526125cc818561188a565b90506125db6040830184611613565b94935050505056fea2646970667358221220724b600780c59da48aa5ee8c355f38b87810f34978cb1adb8a37cf3162f0ea3364736f6c63430008180033",
  "linkReferences": {},
  "deployedLinkReferences": {}
}